:020000020000FC
:020000001CC022
:0200100022C408
:1000380038C30FEF0DBF08E00EBF112400E0009396
:10004800000100930501009306010093010100934C
:100058000201009303010093040100930701009338
:1000680008010093090100930C0100930D0100930E
:100078000E0100930F0100931201009313010093E6
:1000880014010093190100931A0100931B010093B6
:100098001C010093150100931601009317010093AA
:1000A800180100931D0100931E0101E000930A014D
:1000B80000930B0100E307B90FE008B902E00093D1
:1000C80068000FE000936C000FEF0AB90FE304B962
:1000D80000270BB905B902E004BD03E005BD09EF2F
:1000E80007BD02E000936E00772706B1202F21702C
:1000F800522F202F2270622F202F2470422F202F62
:100108002870322F789407D01CD0703011F07230DC
:1001180009F427D089C00F931F9300911101013072
:1001280069F400270093110105B110E3012705B90F
:1001380000911E0111E0012700931E011F910F91EC
:1001480008950F9300911001013049F4002700939E
:100158001001703019F0723009F001C01BD00F91F6
:1001680008950F931F9300910E01013081F40091BF
:10017800090110910D01011751F400910801109126
:100188000C01011721F401E000930F0175E01F91A4
:100198000F9108950F931F932F93009107010395D3
:1001A8000C3308F414C000271091080113951C3370
:1001B80008F40BC01127209109012395283108F470
:1001C80002C022270AD02093090110930801009346
:1001D80007012F911F910F9108950F931F93EF938C
:1001E800FF9300910A01039513D0011750F049F0CD
:1001F80001E010910B0113951D3008F011E01093E8
:100208000B0100930A01FF91EF911F910F9108953F
:10021800EF93FF9310910B01F8E0E6EFE10FF11D6A
:100228001491FF91EF910895703009F410C0713066
:1002380009F415C0723009F40EC0733009F43DC0DA
:10024800743009F468C0753009F493C05CCF15D2D6
:100258001AD2AED058CF11D216D2BDD054CF07D2B1
:1002680000911201013059F4002700931201009106
:100278001D01003011F06DD11EC054D11CC0009179
:100288001301013059F400270093130100911D0157
:10029800003011F069D10FC050D10DC00091140188
:1002A800013049F400270093140100911D0111E069
:1002B800012700931D01A2D026CFD9D100911201A8
:1002C800013059F400270093120100911D010030FC
:1002D80011F074D11EC054D11CC00091130101301B
:1002E80059F400270093130100911D01003011F00B
:1002F8007AD10FC054D10DC000911401013049F4D6
:1003080000270093140100911D0111E001270093BB
:100318001D01A3D0F8CEABD100911201013059F4E0
:1003280000270093120100911D01003011F088D1BF
:100338001EC06FD11CC000911301013059F4002771
:100348000093130100911D01003011F084D10FC0FA
:100358006BD10DC000911401013049F400270093BE
:10036800140100911D0111E0012700931D01A4D083
:10037800CACE7DD100911201013049F400270093C3
:10038800120101E000930E017ED17727BCCE0091C7
:100398001301013059F4002700931301002700933B
:1003A8000E0100930F016FD17727ADCE85D0ABCE6C
:1003B8000F931F9300910901AED000930101109390
:1003C800020100910801A7D01093030100930401D2
:1003D8001F910F9108950F931F9300910A019BD0CD
:1003E800009301011093020100910B0194D0109326
:1003F8000301009304011F910F9108950F931F9318
:100408002F9320911E0100911D01003041F42130ED
:1004180031F40AE0009301010093020107C0009142
:10042800090179D0009301011093020100911D0187
:10043800013041F4213031F40AE0009303010093C4
:10044800040107C00091080166D0109303010093CE
:1004580004012F911F910F9108950F931F932F93CC
:1004680020911E0100911D01003041F4213031F42A
:100478000AE0009301010093020107C000910A01FC
:100488004AD0009301011093020100911D0101302F
:1004980041F4213031F40AE0009303010093040190
:1004A80007C000910B0137D010930301009304019A
:1004B8002F911F910F9108950F931F932F932091C0
:1004C8001E0100911D01003041F4213031F40AE091
:1004D800009301010093020107C000910D011BD098
:1004E800009301011093020100911D01013041F4B4
:1004F800213031F40AE0009303010093040107C09E
:1005080000910C0108D010930301009304012F916E
:100518001F910F91089511270A3018F00A5013956A
:10052800FBCF08950F93009109010395083108F056
:100538000027009309010F9108950F930091090175
:10054800003011F00A9501C007E1009309010F91ED
:1005580008950F930091080103950C3308F00027C4
:10056800009308010F9108950F930091080100303E
:1005780011F00A9501C00BE3009308010F9108954B
:100588000F931F9300910A01039542DE011710F0A3
:1005980009F001E000930A011F910F9108950F934C
:1005A8001F9300910A01013011F00A9502C030DE54
:1005B800012F00930A011F910F9108950F931F9324
:1005C80000910B0103950D3008F001E000930B0139
:1005D8001FDE00910A01011718F011F010930A01AB
:1005E8001F910F9108950F931F9300910B010130F4
:1005F80011F00A9501C00CE000930B0109DE00918F
:100608000A01011718F011F010930A011F910F91B8
:1006180008950F9300910D010395083108F0002704
:1006280000930D010F9108950F9300910D01003073
:1006380011F00A9501C007E100930D010F9108958B
:100648000F9300910C0103950C3308F000270093D9
:100658000C010F9108950F9300910C01003011F0D7
:100668000A9501C00BE300930C010F9108950F93B5
:1006780008B1006108B90F9108950F9308B10F7E72
:1006880008B90F9108950F931F9300910E0118B1A7
:10069800013011F4106201C01F7D18B91F910F912C
:1006A80008950F930FB70F931F932F933F93EF93D3
:1006B800FF9305B1007F05B910910001103029F0B2
:1006C800113031F0123039F009C02091010108C011
:1006D8002091020105C02091030102C0209104016C
:1006E800F8E0EAEEE20FF11D049130910F0131308C
:1006F80011F4006801C00F770BB9212F31E02030C9
:1007080019F0330F2A95FBCF05B1007F032B05B9EC
:10071800109100011395143008F01127109300016F
:100728002091050130910601239509F43395209312
:10073800050130930601009119010130D9F40091A7
:100748001501039500931501043108F45EC006B144
:100758000170003049F47395763009F4772700E08A
:1007680000931D0100931E0100E00093190106B1DA
:100778000170502F00911A010130A9F4009116015F
:10078800039500931601043108F40DC006B10270F8
:10079800003019F401E00093120100E000931A01FF
:1007A80006B10270602F00911B010130A9F400917D
:1007B8001701039500931701043108F40DC006B121
:1007C8000470003019F401E00093130100E0009375
:1007D8001B0106B10470402F00911C010130A9F4DF
:1007E80000911801039500931801043108F40DC015
:1007F80006B10870003019F401E00093140100E01C
:1008080000931C0106B10870302F04EF201701E097
:10081800300719F401E00093110108EE201703E0F6
:10082800300761F401E00093110122273327209358
:1008380005013093060101E000931001FF91EF914B
:100848003F912F911F910F910FBF0F9118951FB7CF
:100858001F930F932F9326B1022F0170051749F0AC
:10086800502F003031F401E00093190100E00093AB
:100878001501022F0270061769F0602F003051F43D
:1008880000911201013031F001E000931A0100E0FB
:1008980000931601022F0470041769F0402F0030EE
:1008A80051F400911301013031F001E000931B0174
:1008B80000E000931701022F0870031769F0302F2A
:1008C800003051F400911401013031F001E000933F
:1008D8001C0100E0009318012F910F911F911FBF79
:1008E80018953F065B4F666D7D077F6F0000001F00
:0C08F8001C1F1E1F1E1F1F1E1F1E1F00A6
:00000001FF
