S0240000536C617665325F436173696C6C65726F5F496E74656C6967656E74652E73726563FF
S11300000C949D000C94BA000C94BA000C94BA00A1
S11300100C94BA000C94BA000C94BA000C94BA0074
S11300200C94BA000C94BC000C94BA000C945E02BC
S11300300C94BA000C94BA000C94BA000C94BA0054
S11300400C94BA000C94BA000C94BA000C94BA0044
S11300500C94BA000C94BA000C94BA000C94BA0034
S11300600C94E9000C94BA0008016B016B016B015C
S11300706B016B016B016B016B016B016B016B011C
S11300806B016B016B016B0108016B016B016B016F
S11300906B016B016B016B016B016B016B016B01FC
S11300A06B016B016B016B010F016B016B016B0148
S11300B06B016B016B016B013C016B016B016B010B
S11300C06B016B016B016B010F016B016B016B0128
S11300D06B016B016B016B013C016B016B016B01EB
S11300E06B016B016B016B013C016B016B016B01DB
S11300F06B016B016B016B0143016B016B016B01C4
S11301006B016B016B016B016B016B016B016B018B
S11301106B016B016B016B0143016B016B016B01A3
S11301206B016B016B016B0164016B016B016B0172
S11301306B016B016B016B01640111241FBECFEFD6
S1130140D8E0DEBFCDBF11E0A0E0B1E0E2EAF5E027
S113015002C005900D92A230B107D9F721E0A2E0C8
S1130160B1E001C01D92A731B207E1F70E94C801B6
S11301700C94CF020C9400001F920F920FB60F92B2
S113018011248F939F938091020190910301019612
S113019090930301809302019F918F910F900FBE62
S11301A00F901F9018958091B900887F08957093DF
S11301B0070160930601409305011092040191E048
S11301C090930001880F8093BA0085EC8093BC0063
S11301D008951F920F920FB60F9211242F933F93FD
S11301E04F935F936F937F938F939F93AF93BF933B
S11301F0EF93FF930E94D30090E0FC01E056F109D5
S1130200E936F10508F067C0EC5CFF4F0C94AF02CF
S113021081E08093000185EC8093BC0062C08091F2
S11302200001882379F09091BB0080910501981713
S113023018F48091BB0001C080E080930401109207
S1130240000116C09091040180910501981780F473
S113025080910401E0910601F0910701E80FF11D7E
S11302608091BB008083809104018F5F809304019F
S113027085EC8093BC0035C081E08093000185EC5F
S11302808093BC002EC090910401809105019817C1
S1130290A0F480910401E0910601F0910701E80FB8
S11302A0F11D80818093BB00809104018F5F809356
S11302B0040185EC8093BC0014C08FEF8093BB00D5
S11302C085E88093BC000DC081E08093000185EC3B
S11302D08093BC0006C081E08093000185EC80938C
S11302E0BC00FF91EF91BF91AF919F918F917F914E
S11302F06F915F914F913F912F910F900FBE0F908F
S11303001F90189580910A01EBE0F1E084838091BD
S1130310080185830895E82F8630E0F4482F50E0E3
S113032060E070E080910A019A01AB01281B310959
S113033041095109ABEAB2E00E94B50261157105A9
S11303408105910539F0E09309010E94180281E0CA
S11303508093080108956CEF7FED8FEF9FEF0E946B
S1130360180282E080930801089580911101882386
S113037071F0813019F0833031F007C0809112019F
S11303800E948B0102C00E94AB01109211010895DA
S11303908AB18F778AB90E94040248E06BE071E069
S11303A081E10E94D70010920A0110920901109273
S11303B00801109211010E94820178948091080131
S11303C0823089F44F9907C00E94500210920A01AA
S11303D01092080114C00E944002811110C083E0F1
S11303E0809308010CC0813051F40E9440028111B5
S11303F006C08091090180930A01109208010E94AD
S1130400B5010E948201DACF8AB180618AB98AB1CA
S113041080628AB9109280008BE08093810084EF1F
S113042091E0909389008093880010926F00089562
S1130430611571058105910511F13CF021E02093CE
S113044001012BB120622BB90DC02FEF20930101C4
S11304502BB12F7D2BB990958095709561957F4F29
S11304608F4F9F4F60931301709314018093150174
S113047090931601EFE6F0E0808182608083089516
S1130480409113015091140160911501709116016E
S113049081E014161506160617060CF080E0089580
S11304A0EFE6F0E080818D7F80831092130110923B
S11304B01401109215011092160108951F920F92C3
S11304C00FB60F9211248F939F93AF93BF93EF9323
S11304D0FF938BB180618BB9000000000000000025
S11304E08BB18F7E8BB98091130190911401A091EF
S11304F01501B0911601181619061A061B069CF46C
S11305008091130190911401A0911501B0911601ED
S11305100197A109B1098093130190931401A09349
S11305201501B09316018091130190911401A091CB
S11305301501B0911601892B8A2B8B2B29F4EFE638
S1130540F0E080818D7F8083FF91EF91BF91AF9127
S11305509F918F910F900FBE0F901F901895EE0FE3
S1130560FF1F0590F491E02D09940E94C002A59FFD
S1130570900DB49F900DA49F800D911D112408959A
S1130580A29FB001B39FC001A39F700D811D1124D0
S1130590911DB29F700D811D1124911D0895F89431
S10505A0FFCF87
S10505A2010151
S9030000FC
