S0240000536C617665315F436173696C6C65726F5F496E74656C6967656E74652E7372656300
S11300000C949D000C94BA000C94BA000C94BA00A1
S11300100C94BA000C94BA000C94BA000C946B03C0
S11300200C94BA000C94E2000C94BA000C94BA003C
S11300300C94BA000C94BA000C94BA000C94BA0054
S11300400C94BA000C94BA000C9419040C94BA00E1
S11300500C94BA000C94BA000C94BA000C94BA0034
S11300600C9485010C94BA00A4010702070207024C
S11300700702070207020702070207020702070234
S11300800702070207020702A40107020702070288
S11300900702070207020702070207020702070214
S11300A00702070207020702AB0107020702070261
S11300B00702070207020702D80107020702070224
S11300C00702070207020702AB0107020702070241
S11300D00702070207020702D80107020702070204
S11300E00702070207020702D801070207020702F4
S11300F00702070207020702DF01070207020702DD
S113010007020702070207020702070207020702A3
S11301100702070207020702DF01070207020702BC
S1130120070207020702070200020702070207028A
S11301300702070207020702000211241FBECFEFC5
S1130140D8E0DEBFCDBF11E0A0E0B1E0EEE5FCE019
S113015002C005900D92A230B107D9F721E0A2E0C8
S1130160B1E001C01D92AE31B207E1F70E94FC027A
S11301700C942D060C9400002FB7F89460910201A2
S113018070910301CB01A0E0B0E0BA2FA92F982F02
S113019088273091B200BC01CD01632B2FBF089595
S11301A08BB18B7F8BB98AE08A95F1F700C08BB154
S11301B084608BB985E38A95F1F700008BB18B7F5E
S11301C08BB908951F920F920FB60F9211248F933B
S11301D09F938091020190910301019690930301F2
S11301E0809302019F918F910F900FBE0F901F90EB
S11301F018958AB184608AB98BB18B7F8BB98AB127
S1130200877F8AB98BB1877F8BB91092B00086E063
S11302108093B1001092B200109203011092020177
S1130220E0E7F0E08081816080830895CF92DF92DF
S1130230EF92FF920E94D0000E94BC006B017C01EF
S11302400DC00E94BC00DC01CB018C199D09AE09D4
S1130250BF0983359740A105B10578F54B9BF1CFD4
S11302600E94BC006B017C010DC00E94BC00DC013B
S1130270CB018C199D09AE09BF0983359740A105AF
S1130280B10500F54B99F1CF0E94BC006C197D09B2
S11302908E099F090E94D20420E030E040E851E436
S11302A00E94890520E030E048E652E40E943104CF
S11302B0562F472F382F292F09C050E040E030E84F
S11302C02FEB04C050E040E030E82FEB652F742F93
S11302D0832F922FFF90EF90DF90CF90089580911D
S11302E0B900887F089570930701609306014093D5
S11302F005011092040191E090930001880F80930E
S1130300BA0085EC8093BC0008951F920F920FB63B
S11303100F9211242F933F934F935F936F937F9387
S11303208F939F93AF93BF93EF93FF930E946F01BB
S113033090E0FC01E056F109E936F10508F067C0E8
S1130340EC5CFF4F0C94180681E08093000185EC6F
S11303508093BC0062C080910001882379F0909161
S1130360BB0080910501981718F48091BB0001C06F
S113037080E0809304011092000116C09091040162
S113038080910501981780F480910401E0910601A1
S1130390F0910701E80FF11D8091BB0080838091EB
S11303A004018F5F8093040185EC8093BC0035C009
S11303B081E08093000185EC8093BC002EC0909175
S11303C00401809105019817A0F480910401E09143
S11303D00601F0910701E80FF11D80818093BB00B5
S11303E0809104018F5F8093040185EC8093BC00AD
S11303F014C08FEF8093BB0085E88093BC000DC0D0
S113040081E08093000185EC8093BC0006C081E00C
S11304108093000185EC8093BC00FF91EF91BF9124
S1130420AF919F918F917F916F915F914F913F9188
S11304302F910F900FBE0F901F901895CF9380911E
S1130440110181113EC0C0911301C130F9F46091D2
S11304500D0170910E0180910F019091100120E027
S113046030E040E351E40E942C0418167CF0109212
S1130470130180911201813001F580930C0188EE03
S113048093E0909309018093080117C0C11115C02E
S113049060910D0170910E0180910F0190911001F6
S11304A020E030E040E551E40E94840588232CF0EC
S11304B081E08093130110920C01809113018093C9
S11304C01601CF91089582E08093B00094E0909358
S11304D0B10099EF9093B30080937000089580E089
S11304E00E940404109212011092170108958AE5E3
S11304F00E94040481E080931201809317010895FF
S1130500CF92DF92EF92FF920E9416016B017C0161
S113051020E030E0A9010E942C04882334F481E017
S1130520809311018093180124C01092110110923C
S1130530180120E030E04FE753E4C701B6010E9400
S11305408405181644F40F2EC12CD12CFFE7EF2E8E
S1130550F3E4FF2EF02DC0920D01D0920E01E09233
S11305600F01F0921001C701B6010E94A304609329
S11305701501FF90EF90DF90CF90089580911A01BC
S1130580882309F1E5E1F1E086819581923069F0F3
S113059018F4913031F015C0933071F0943079F043
S11305A010C090E00E947A030CC090E09195819570
S11305B091090E947A0305C00E94D30302C00E94DD
S11305C0A60310921A01089580911901813039F41B
S11305D00E94770210920C01109219010AC08091B6
S11305E01901823031F40E946F0210920C011092B2
S11305F019010E94BE0208950E9463020E94F9003C
S11306000E94DB030E94B80347E065E171E080E1EA
S11306100E947301109213011092120110921101A1
S113062010920C0110920B0110920A0180E00E94BA
S1130630040480911301E5E1F1E0818380911201CA
S11306408283138214821582168278948091140115
S11306508823E1F01092140180910A0190910B011A
S1130660009729F0019790930B0180930A018091E0
S11306700C01882359F08091080190910901009799
S113068029F00197909309018093080180910A0150
S113069090910B01892B51F484E690E090930B0127
S11306A080930A010E9480020E941E0280910C0124
S11306B0882371F08091080190910901892B41F4FC
S11306C010920C0180911301811102C00E946F02EB
S11306D00E94E402BBCF1F920F920FB60F92112417
S11306E08F9381E0809314018F910F900FBE0F9030
S11306F01F9018951816190674F42BB120622BB9A3
S11307002BB12F7E2BB98F3F910519F014F08FEF89
S113071090E087BD089599238CF42BB12F7D2BB9DC
S11307202BB120612BB99195819591098F3F91054A
S113073019F014F08FEF90E087BD08958BB18F7D91
S11307408BB98BB18F7E8BB917BC08958BB1806246
S11307508BB98BB180618BB917BC0895882321F0C4
S11307608BB180688BB908958BB18F778BB908955D
S11307708AB180628AB98AB180618AB98AB1806893
S11307808AB98AB180648AB98BB18F7D8BB98BB1F8
S11307908F7E8BB981E00E94AE0383E884BD83E041
S11307A085BD17BC08958BB18F7D8BB98BB18F7EBE
S11307B08BB917BC089584B1826084B982E88093B0
S11307C080008AE1809381008FE39CE99093870005
S11307D08093860088EE93E090938900809388004C
S11307E00895843F21E0920710F484EF91E0853C62
S11307F029E0920710F084EC99E0880F991F9093F8
S11308008900809388000895853B08F084EB282FA5
S113081030E0A0EDB7E00E941E0624EB30E040E09B
S113082050E00E94F605C9018C509E4F0E94F103CE
S113083008951F920F920FB60F9211248F938091F7
S1130840C60080931D0181E080931C018F910F905D
S11308500FBE0F901F9018950E940F0508F481E0B9
S113086008950E9445040C944A050E94430558F0DB
S11308700E943C0540F029F45F3F29F00C943305B5
S113088051110C947E050C9439050E945B0568F3A4
S11308909923B1F3552391F3951B550BBB27AA2735
S11308A062177307840738F09F5F5F4F220F331F6F
S11308B0441FAA1FA9F335D00E2E3AF0E0E832D037
S11308C091505040E695001CCAF72BD0FE2F29D03A
S11308D0660F771F881FBB1F261737074807AB070C
S11308E0B0E809F0BB0B802DBF01FF2793585F4F81
S11308F03AF09E3F510578F00C9433050C947E0534
S11309005F3FE4F3983ED4F3869577956795B79562
S1130910F7959F5FC9F7880F911D9695879597F96D
S11309200895E1E0660F771F881FBB1F62177307E6
S11309308407BA0720F0621B730B840BBA0BEE1FFB
S113094088F7E09508950E94630588F09F5798F012
S1130950B92F9927B751B0F0E1F0660F771F881FC0
S1130960991F1AF0BA95C9F714C0B13091F00E94DA
S11309707D05B1E008950C947D05672F782F8827B5
S1130980B85F39F0B93FCCF3869577956795B39501
S1130990D9F73EF490958095709561957F4F8F4F70
S11309A09F4F0895E89409C097FB3EF49095809575
S11309B0709561957F4F8F4F9F4F9923A9F0F92F21
S11309C096E9BB279395F695879577956795B7959F
S11309D0F111F8CFFAF4BB0F11F460FF1BC06F5F85
S11309E07F4F8F4F9F4F16C0882311F096E911C097
S11309F0772321F09EE8872F762F05C0662371F0B8
S1130A0096E8862F70E060E02AF09A95660F771FCB
S1130A10881FDAF7880F9695879597F90895990FA7
S1130A200008550FAA0BE0E8FEEF16161706E807B4
S1130A30F907C0F012161306E407F50798F0621BD5
S1130A40730B840B950B39F40A2661F0232B242BAA
S1130A50252B21F408950A2609F4A140A6958FEFC9
S1130A60811D811D089597F99F6780E870E060E01B
S1130A7008959FEF80EC089500240A941616170633
S1130A8018060906089500240A941216130614067B
S1130A9005060895092E0394000C11F4882352F0DE
S1130AA0BB0F40F4BF2B11F460FF04C06F5F7F4F96
S1130AB08F4F9F4F089557FD9058440F551F59F07D
S1130AC05F3F71F04795880F97FB991F61F09F3F37
S1130AD079F087950895121613061406551FF2CF60
S1130AE04695F1DF08C0161617061806991FF1CFB0
S1130AF086957105610508940895E894BB276627D7
S1130B007727CB0197F908950E940F0508F48FEF1A
S1130B1008950E949C050C944A050E943C0538F0F7
S1130B200E94430520F0952311F00C9433050C9496
S1130B30390511240C947E050E945B0570F3959F82
S1130B40C1F3950F50E0551F629FF001729FBB27C0
S1130B50F00DB11D639FAA27F00DB11DAA1F649F5C
S1130B606627B00DA11D661F829F2227B00DA11D0F
S1130B70621F739FB00DA11D621F839FA00D611D95
S1130B80221F749F3327A00D611D231F849F600DB6
S1130B90211D822F762F6A2F11249F5750409AF0DF
S1130BA0F1F088234AF0EE0FFF1FBB1F661F771F6B
S1130BB0881F91505040A9F79E3F510580F00C9436
S1130BC033050C947E055F3FE4F3983ED4F3869599
S1130BD077956795B795F795E7959F5FC1F7FE2BD6
S1130BE0880F911D9695879597F90895A1E21A2E7D
S1130BF0AA1BBB1BFD010DC0AA1FBB1FEE1FFF1FBD
S1130C00A217B307E407F50720F0A21BB30BE40B0C
S1130C10F50B661F771F881F991F1A9469F7609553
S1130C207095809590959B01AC01BD01CF0108950D
S1130C30EE0FFF1F0590F491E02D0994A29FB001DF
S1130C40B39FC001A39F700D811D1124911DB29FFC
S1110C50700D811D1124911D0895F894FFCF9D
S1050C5E01008F
S9030000FC
