S02400004D61737465725F436173696C6C65726F5F496E74656C6967656E74652E73726563C0
S11300000C94B1000C94CE000C94CE000C94CE0051
S11300100C94CE000C94CE000C94CE000C94CE0024
S11300200C94CE000C9474020C94CE000C948C07A7
S11300300C94CE000C94CE000C9460070C94CE006B
S11300400C94CE000C94CE000C94DE070C94CE00DD
S11300500C94CE000C94CE000C94CE000C94CE00E4
S11300600C94CE000C94CE0000407A10F35A00A0F9
S1130070724E18090010A5D4E80000E8764817006D
S113008000E40B54020000CA9A3B000000E1F505AD
S1130090000080969800000040420F000000A086F7
S11300A001000000102700000000E8030000000029
S11300B06400000000000A000000000001000000CD
S11300C000002C76D888DC674F0823DFC1DFAE59E7
S11300D0E1B1B796E5E3E453C63AE651997696E87A
S11300E0E6C28426EB898C9B62ED407C6FFCEFBCFE
S11300F09C9F40F2BAA56FA5F490055A2AF75C9329
S11301006B6CF9676DC11BFCE0E40D47FEF520E65E
S1130110B500D0ED902E0300943577050080841E41
S1130120080000204E0A000000C80C333333330F9C
S1130130986E12831141EF8D2114893BE65516CF39
S1130140FEE6DB18D1844B381BF77C1D901DA4BB45
S1130150E424203284725E228100C9F124ECA1E5FA
S11301603D2711241FBECFEFD8E0DEBFCDBF12E084
S1130170A0E0B1E0E8EBFFE102C005900D92A632E9
S1130180B107D9F722E0A6E2B2E001C01D92A3377D
S1130190B207E1F70E940A070C94DA0F0C940000EE
S11301A02FEF83EF91E0215080409040E1F700C0B1
S11301B0000060E088E30E94E002811109C081EE42
S11301C00E94C70288E00E94C70280E00E94C70222
S11301D00E94BB022FEF89EF90E0215080409040B5
S11301E0E1F700C0000008954F925F926F927F92F2
S11301F08F929F92AF92BF92EF92FF920F931F93B1
S1130200CF93DF938C017B0160E088E30E94E002DE
S1130210C82F882321F00E94BB02C0E0AAC08CEA48
S11302200E94C70283E30E94C70280E00E94C702C3
S11302300E94BB022FEF37EE43E021503040404094
S1130240E1F700C0000061E088E30E94E002D82FDB
S1130250882319F00E94BB028CC00E94A702882345
S113026024F40E94BB02CD2F84C00E94A702982EC2
S11302700E94A702A82E0E94A702D82F0E94A702BC
S1130280C82F0E94B102B82E0E94BB02892D90E0B3
S1130290A0E0B0E0072E7CE0880F991FAA1FBB1FC7
S11302A07A95D1F7702D4A2D50E060E070E0440F4C
S11302B0551F661F771F440F551F661F771F440F76
S11302C0551F661F771F440F551F661F771F842B0A
S11302D0952BA62BB72B2D2F22952F70BC01CD016A
S11302E0622BDF704D2E512C612C712C3201552460
S11302F044242C2F30E040E050E0542F432F322F81
S11303002227422A532A642A752AA30192012B29FF
S113031049015A010E94A50820E030E048EC52E46B
S11303200E945C0920E030E040E855E30E945C094B
S1130330F7016083718382839383C501B4010E94B2
S1130340A50820E030E048E453E40E945C0920E082
S113035030E040E855E30E945C0920E030E048E4E6
S113036052E40E940408F8016083718382839383BA
S1130370C1E08C2FDF91CF911F910F91FF90EF90EF
S1130380BF90AF909F908F907F906F905F904F90B1
S113039008959BB140E1849F900111249F70292B03
S11303A02BB995B1907F82958F70892B85B966237F
S11303B021F088B1816088B903C088B18E7F88B983
S11303C085E08A95F1F7000088B1826088B945E03C
S11303D04A95F1F7000088B18D7F88B985E08A9548
S11303E0F1F700000895CF93C82F60E00E94C9017F
S11303F0C150C23038F48FE39FE10197F1F700C098
S1130400000006C087EC90E00197F1F700C00000FF
S1130410CF91089561E00E94C90187EC90E00197B3
S1130420F1F700C000000895CF93DF93EC0103C0FF
S11304300E940A02219688818111FACFDF91CF911F
S1130440089581E00E94F30108958AB1806F8AB90A
S113045084B18F6084B987B1836087B988B18C7F98
S113046088B92FEF83EF91E0215080409040E1F76D
S113047000C0000060E080E30E94C9018FE19EE4B7
S11304800197F1F700C0000060E080E30E94C90119
S113049087E592E00197F1F700C0000060E080E397
S11304A00E94C90187E592E00197F1F700C00000BE
S11304B088E30E94F30184E0809300018CE00E94B1
S11304C0F3010E94210286E00E94F3010895643042
S11304D008F063E0E62FF0E0ED5FFE4F9081890FB6
S11304E080680E94F30108951F920F920FB60F9235
S11304F011248F939F938091260290912702019655
S113050090932702809326029F918F910F900FBEA4
S11305100F901F9018959B01AC01E9EBF0E08081EE
S11305208C7F808360E074E284EF90E00E94DD09B8
S1130530DA01C9014097A109B109B695A795979524
S113054087958093B80084E08093BC00089584EC80
S11305508093BC008091BC008823E4F78091BB00A9
S1130560089584E88093BC008091BC008823E4F75C
S11305708091BB00089584E98093BC008091BC0005
S113058084FDFCCF08958091B900887F08958093FD
S1130590BB0084E88093BC008091BC008823E4F70E
S11305A00E94C302883131F0883231F0803431F452
S11305B080E0089580E0089580E0089581E0089542
S11305C0CF93DF93C82FD62F84EA8093BC009091F9
S11305D0BC009923E4F70E94C302883011F08031F3
S11305E051F42C2F30E0220F331F8D2F8170822B7A
S11305F00E94C70201C081E0DF91CF910895CF939B
S1130600DF93C62FD42F60E00E94E002882321F0FC
S11306100E94BB02C1E015C08C2F0E94C702882330
S113062021F00E94BB02C1E00CC08D2F0E94C702C2
S1130630C82F882321F00E94BB02C1E002C00E949F
S1130640BB028C2FDF91CF910895FF920F931F93DC
S1130650CF93DF93222309F441C0D22F8A01F62ECF
S1130660C82F60E00E94E002882329F00E94BB02A8
S1130670FF24F39435C08F2D0E94C702882329F0EC
S11306800E94BB02FF24F3942BC061E08C2F0E94D4
S1130690E002F82E8823E1F00E94BB02FF24F394C9
S11306A01FC02C2F30E08D2F90E0019728173907B9
S11306B039F40E94B102F801EC0FF11D808306C0E9
S11306C00E94A702F801EC0FF11D8083CF5F01C0E7
S11306D0C0E0CD1730F30E94BB0202C0FF24F394A4
S11306E08F2DDF91CF911F910F91FF900895FF926D
S11306F00F931F93CF93DF93222369F1D22F8A01A3
S1130700C62F60E00E94E002882329F00E94BB0209
S1130710FF24F39422C08C2F0E94C702F82E882352
S1130720A1F00E94BB02FF24F39417C0F801EC0F60
S1130730F11D80810E94C702882329F00E94BB0218
S1130740FF24F3940AC0CF5F01C0C0E0CD1770F35B
S11307500E94BB0202C0FF24F3948F2DDF91CF913E
S11307601F910F91FF90089582E084BD93E095BDA1
S113077099EF97BD80936E0008958CE0809381007B
S11307801092800084EF8093890083E28093880034
S113079082E080936F000895CF93DF9300D000D060
S11307A01F92CDB7DEB725E0AE014F5F5F4F60E02B
S11307B080E10E942503811131C08A8191E081305A
S11307C009F090E0909346022B8191E0213009F4E6
S11307D090E09093470290910201891769F0809309
S11307E00201813029F487E091E00E94BB0704C034
S11307F080E191E00E94BB078B81909101018917F0
S113080069F080930101813029F489E191E00E942B
S1130810BB0704C083E291E00E94BB070F900F90D6
S11308200F900F900F90DF91CF9108950F931F9326
S1130830CF93DF93CDB7DEB760970FB6F894DEBFE2
S11308400FBECDBFBE016B5F7F4FCE0101960E94EC
S1130850F400882309F494C06D817E818F8198858A
S113086020E030E0A9010E947108882324F41D824D
S11308701E821F8218866D817E818F81988520E07B
S113088030E048EC52E40E945709181644F480E022
S113089090E0A8ECB2E48D839E83AF83B8876D812A
S11308A07E818F8198850E94760860934C026981CD
S11308B07A818B819C8120E030E040E252EC0E94FE
S11308C07108882344F480E090E0A0E2B2EC8983CC
S11308D09A83AB83BC8369817A818B819C8120E07C
S11308E030E04AEA52E40E945709181644F480E0C2
S11308F090E0AAEAB2E489839A83AB83BC838981BA
S11309009A81AB81BC818093480290934902A09361
S11309104A02B0934B028CE291E00E94BB078091A3
S11309204C024AE0BE01675F7F4F90E00E94AA0A32
S1130930CE0109960E94BB0781E291E00E94BB07A9
S11309408EE291E00E94BB076091480270914902D7
S113095080914A0290914B028E01075F1F4F21E064
S113096045E00E944A0AF80101C031968081803234
S1130970E1F3CF010E94BB0781E291E00E94BB0733
S113098060960FB6F894DEBF0FBECDBFDF91CF9156
S11309901F910F910895CF93DF9300D0CDB7DEB7A9
S11309A0992314F480E090E08536910514F084E6F0
S11309B090E0181619067CF44FEF489F9001499F68
S11309C0300D1124C90164E670E00E94C90981E078
S11309D089836A8303C083E089831A8222E0AE019B
S11309E04F5F5F4F65E080E10E9477030F900F90A7
S11309F0DF91CF91089580914502882371F0809111
S1130A004402882309F46DC080E090E00E94CB0486
S1130A10109244021092280208958091280288239B
S1130A2019F0109228020895809144028130E1F077
S1130A3030F0823081F1833009F444C0089580910C
S1130A404C02863408F44DC084E690E00E94CB0446
S1130A5088E893E1909343028093420281E080937B
S1130A6044028093280208958091420290914302A7
S1130A70892BB9F582E390E00E94CB0488EB9BE0DC
S1130A80909343028093420282E08093440281E087
S1130A908093280208958091420290914302892B09
S1130AA001F584E190E00E94CB0480ED97E09093FF
S1130AB043028093420283E08093440281E0809366
S1130AC0280208958091420290914302892B49F4AF
S1130AD080E090E00E94CB041092440281E0809375
S1130AE0280208950F931F93CF93DF9300D0CDB7BF
S1130AF0DEB78C0160E371E00E94930A892B41F414
S1130B0081E0809345028AE391E00E94BB07C5C05F
S1130B1069E471E0C8010E94930A892B39F41092A8
S1130B20450284E591E00E94BB07B7C0809145026D
S1130B30882309F4B2C064E671E0C8010E94930AF4
S1130B40892B71F060E771E0C8010E94930A892B38
S1130B5039F068E771E0C8010E94930A892B31F4E7
S1130B6042E064E080E10E94FF0297C060E871E027
S1130B70C8010E94930A892B71F06BE871E0C801E7
S1130B800E94930A892B39F064E971E0C8010E943C
S1130B90930A892B31F441E064E080E10E94FF0272
S1130BA07CC06DE971E0C8010E94930A892B31F47D
S1130BB043E066E081E10E94FF026FC068EA71E0F1
S1130BC0C8010E94930A892B31F442E066E081E176
S1130BD00E94FF0262C04CE050E065EB71E0C80186
S1130BE00E949C0A892B21F5045F1F4F69E270E083
S1130BF0C8010E94880A009709F44FC0FC011082C2
S1130C00C8010E946A0A992314F480E090E08630B7
S1130C10910514F085E090E091E099838A8322E0C5
S1130C20AE014F5F5F4F66E081E10E94770335C0FC
S1130C3062EC71E0C8010E94930A892B61F481E09F
S1130C4089838A8322E0AE014F5F5F4F66E081E1D2
S1130C500E94770322C042E050E06EEC71E0C801CC
S1130C600E949C0A892B39F4C80102960E946A0AE0
S1130C700E94CB0412C061ED71E0C8010E94930A86
S1130C80892B59F484E089831A8222E0AE014F5FF4
S1130C905F4F65E080E10E9477030F900F90DF9132
S1130CA0CF911F910F91089521C00E94D1078A30DE
S1130CB011F08D3079F4E0914102EE23B9F0F0E0C7
S1130CC0E75DFD4F108289E292E00E947205109266
S1130CD041020CC0E0914102E73140F491E09E0FE3
S1130CE090934102F0E0E75DFD4F80830E94C807C6
S1130CF08111DBCF08950F931F93CF93DF93CDB76B
S1130D00DEB768970FB6F894DEBF0FBECDBF61E0C3
S1130D1080E00E94670280914C021F928F938AEDBB
S1130D2091E09F938F931F9280E18F938E010F5FC9
S1130D301F4F1F930F930E94D70AC8010E941402E9
S1130D4061E089E00E946702609148027091490263
S1130D5080914A0290914B02005F1F4F21E045E0D1
S1130D600E944A0A0FB6F894DEBF0FBECDBFF80149
S1130D7001C0319680818032E1F3FF93EF9381EEDD
S1130D8091E09F938F931F9280E18F938E010F5F69
S1130D901F4F1F930F930E94D70AC8010E94140289
S1130DA061E081E10E94670287EE91E00E941402F3
S1130DB061E081E10E946702809147020FB6F894D6
S1130DC0DEBF0FBECDBF813029F48CEE91E00E94CE
S1130DD0140204C082EF91E00E94140261E08AE1EF
S1130DE00E94670280914602813029F488EF91E0E5
S1130DF00E94140204C08FEF91E00E9414026896CE
S1130E000FB6F894DEBF0FBECDBFDF91CF911F9117
S1130E100F9108950E94B4030E94BD030E949F078E
S1130E2060EA76E881E090E00E948B020E94D000A4
S1130E300E94250284EF91E09093500280934F0228
S1130E40789460E080E00E94670286E092E00E946D
S1130E50140280914F0290915002892B51F484EF37
S1130E6091E09093500280934F020E94CC030E9421
S1130E7016040E9454060E94FB040E947B062FEF76
S1130E8080E792E0215080409040E1F700C00000EC
S1130E9080914D028111DDCF80914E02813138F471
S1130EA088E10E94F30181E080934D02D2CF109239
S1130EB04E0282E00E94F30181E080934D02C9CF8B
S1130EC01F920F920FB60F9211248F939F938091CC
S1130ED04F0290915002892B49F080914F029091DA
S1130EE0500201979093500280934F0280914202E6
S1130EF090914302892B49F08091420290914302E0
S1130F00019790934302809342029F918F910F9097
S1130F100FBE0F901F9018951F920F920FB60F924D
S1130F2011248F9380914E028F5F80934E02109212
S1130F304D028F910F900FBE0F901F9018958AB19C
S1130F408E7F8AB98AB182608AB91092C00088E91A
S1130F508093C10086E08093C20087E690E090937E
S1130F60C5008093C40008959091C00095FFFCCF04
S1130F708093C6000895CF93DF93EC0103C00E94D1
S1130F80B407219688818111FACFDF91CF9108951A
S1130F90209152029091510281E0291301C080E016
S1130FA00895E0915102F0E0ED5AFD4F8081909157
S1130FB051029F5F9F719093510208951F920F9267
S1130FC00FB60F9211242F938F939F93EF93FF9358
S1130FD0809152028F5F8F712091C60090915102CF
S1130FE0891741F0E0915202F0E0ED5AFD4F208361
S1130FF080935202FF91EF919F918F912F910F90C7
S11310000FBE0F901F9018955058BB27AA270E9417
S11310101C080C941D090E940F0938F00E9416093F
S113102020F039F49F3F19F426F40C940C090EF4C3
S1131030E095E7FB0C940609E92F0E942E0958F36A
S1131040BA17620773078407950720F079F4A6F5A9
S11310500C9450090EF4E0950B2EBA2FA02D0B0121
S1131060B90190010C01CA01A0011124FF27591BE9
S113107099F0593F50F4503E68F11A16F040A22FEF
S1131080232F342F4427585FF3CF46953795279560
S1131090A795F0405395C9F77EF41F16BA0B620B5F
S11310A0730B840BBAF09150A1F0FF0FBB1F661FA6
S11310B0771F881FC2F70EC0BA0F621F731F841FE9
S11310C048F4879577956795B795F7959E3F08F00F
S11310D0B0CF9395880F08F09927EE0F97958795D1
S11310E008950E94E20808F481E008950E943609F8
S11310F088F09F5798F0B92F9927B751B0F0E1F0D5
S1131100660F771F881F991F1AF0BA95C9F714C084
S1131110B13091F00E945009B1E008950C94500947
S1131120672F782F8827B85F39F0B93FCCF38695BD
S113113077956795B395D9F73EF49095809570951A
S113114061957F4F8F4F9F4F0895E89409C097FB97
S11311503EF490958095709561957F4F8F4F9F4F8A
S11311609923A9F0F92F96E9BB279395F6958795CE
S113117077956795B795F111F8CFFAF4BB0F11F491
S113118060FF1BC06F5F7F4F8F4F9F4F16C0882338
S113119011F096E911C0772321F09EE8872F762F6E
S11311A005C0662371F096E8862F70E060E02AF0AF
S11311B09A95660F771F881FDAF7880F969587959B
S11311C097F90895990F0008550FAA0BE0E8FEEF70
S11311D016161706E807F907C0F012161306E407F7
S11311E0F50798F0621B730B840B950B39F40A26F0
S11311F061F0232B242B252B21F408950A2609F4CE
S1131200A140A6958FEF811D811D089597F99F67D1
S113121080E870E060E008959FEF80EC089500247A
S11312200A941616170618060906089500240A9447
S113123012161306140605060895092E0394000CCD
S113124011F4882352F0BB0F40F4BF2B11F460FF5C
S113125004C06F5F7F4F8F4F9F4F089557FD905885
S1131260440F551F59F05F3F71F04795880F97FB66
S1131270991F61F09F3F79F0879508951216130620
S11312801406551FF2CF4695F1DF08C0161617064F
S11312901806991FF1CF8695710561050894089584
S11312A0E894BB2766277727CB0197F908950E9416
S11312B0E20808F48FEF08950E946F090C941D0949
S11312C00E940F0938F00E94160920F0952311F0AE
S11312D00C9406090C940C0911240C9451090E94D5
S11312E02E0970F3959FC1F3950F50E0551F629F2F
S11312F0F001729FBB27F00DB11D639FAA27F00D6B
S1131300B11DAA1F649F6627B00DA11D661F829F91
S11313102227B00DA11D621F739FB00DA11D621F76
S1131320839FA00D611D221F749F3327A00D611D93
S1131330231F849F600D211D822F762F6A2F112475
S11313409F5750409AF0F1F088234AF0EE0FFF1FA8
S1131350BB1F661F771F881F91505040A9F79E3FFF
S1131360510580F00C9406090C9451095F3FE4F395
S1131370983ED4F3869577956795B795F795E79555
S11313809F5FC1F7FE2B880F911D9695879597F95E
S1131390089597FB072E16F4009407D077FD09D023
S11313A00E94360A07FC05D03EF4909581959F4F24
S11313B00895709561957F4F0895A1E21A2EAA1B96
S11313C0BB1BFD010DC0AA1FBB1FEE1FFF1FA217F1
S11313D0B307E407F50720F0A21BB30BE40BF50BEE
S11313E0661F771F881F991F1A9469F76095709577
S11313F0809590959B01AC01BD01CF0108952F927A
S11314003F924F925F926F927F928F929F92AF9290
S1131410BF92CF92DF92EF92FF920F931F93CF93DD
S1131420DF93CDB7DEB7CA1BDB0B0FB6F894DEBF74
S11314300FBECDBF09942A88398848885F846E849A
S11314407D848C849B84AA84B984C884DF80EE80E4
S1131450FD800C811B81AA81B981CE0FD11D0FB6ED
S1131460F894DEBF0FBECDBFED010895AA1BBB1BD0
S113147051E107C0AA1FBB1FA617B70710F0A61B90
S1131480B70B881F991F5A95A9F780959095BC01B1
S1131490CD010895EF920F931F93CF93DF93E8014B
S11314A047FD02C034E001C034E1042E000C550BAA
S11314B057FF03C0519541955109E32E022F242F64
S11314C0AE010E94E80CCE01DF91CF911F910F91E4
S11314D0EF900895FC0188279927E8942191203200
S11314E0E9F3293010F02E30C8F32B3241F02D32BD
S11314F039F4689404C00E94B50A820F911D2191A9
S113150020532A30C0F31EF4909581959F4F08957F
S1131510FC018191861721F08823D9F79927089532
S11315203197CF010895FB01DC018D910190801961
S11315300110D9F3990B0895FB01DC01415050408F
S113154030F08D910190801919F40020B9F7881BAF
S1131550990B0895BB274A3031F4992322F4BDE254
S1131560909581959F4F0C94BE0A7AE0979F902D99
S1131570879F802D910D11240895BB27FB015527CA
S1131580AA27880F991FAA1FA41710F0A41B8395DC
S11315905051B9F7A05DAA3308F0A95DA193009753
S11315A079F7B111B1931192CB010C94300FAEE0E5
S11315B0B0E0EDEDFAE00C940D0A0D891E898F89D7
S11315C0988D26E02C831A83098397FF02C080E05C
S11315D090E801979E838D83AE01455E5F4F698DD0
S11315E07A8DCE0101960E94070B4D815E8157FDD5
S11315F00AC02F813885421753070CF49A01F80169
S1131600E20FF31F10822E96E4E00C94290AABE05B
S1131610B0E0EDE0FBE00C94FF096C017B018A0172
S1131620FC0117821682838181FFCCC1CE01019611
S11316303C01F6019381F70193FD859193FF81911C
S11316407F01882309F4BAC1853239F493FD859169
S113165093FF81917F01853229F4B60190E00E94C5
S1131660400FE7CF912C212C312CFFE1F315D8F05A
S11316708B3279F038F4803279F08332A1F4232D5F
S113168020611DC08D3261F0803369F4232D216007
S113169016C0832D8260382EE32DE4603E2E2AC0CE
S11316A0F32DF8601DC037FC2DC020ED280F2A3023
S11316B040F08E32B9F436FC81C1232D2064322EE1
S11316C019C036FE06C08AE0989E200D1124922E81
S11316D011C0EAE02E9E200D1124222EF32DF0627B
S11316E03F2E08C08C3621F4832D8068382E02C02A
S11316F0883641F4F70193FD859193FF81917F0131
S11317008111B3CF982F9F7D9554933028F40C5FAB
S11317101F4F9FE399830DC0833631F0833771F0F7
S1131720833509F059C021C0F801808189830E5F97
S11317301F4F88248394912C530113C02801F2E095
S11317404F0E511CF801A080B18036FE03C0692DF4
S113175070E002C06FEF7FEFC5010E94250F4C01BE
S11317608201F32DFF773F2E16C0280122E0420E9E
S1131770511CF801A080B18036FE03C0692D70E0D1
S113178002C06FEF7FEFC5010E941A0F4C01F32DC9
S1131790F0683F2E820133FC1BC0822D90E0881636
S11317A09906B0F4B60180E290E00E94400F2A94BA
S11317B0F4CFF50137FC859137FE81915F01B601C5
S11317C090E00E94400F21102A9421E0821A91088F
S11317D08114910471F7E8C0843611F0893641F51B
S11317E0F80137FE07C060817181828193810C5FAB
S11317F01F4F08C060817181072E000C880B990B64
S11318000E5F1F4FF32DFF763F2E97FF09C0909573
S11318108095709561957F4F8F4F9F4FF0683F2E55
S11318202AE030E0A3010E947C0F882E861845C070
S1131830853731F4232D2F7EB22E2AE030E025C0E7
S1131840932D997FB92E8F36C1F018F4883579F02D
S1131850B5C0803719F0883721F0B0C0E92FE061B6
S1131860BE2EB4FE0DC0FB2DF460BF2E09C034FEA5
S11318700AC0292F2660B22E06C028E030E005C039
S113188020E130E002C020E132E0F801B7FE07C0F9
S113189060817181828193810C5F1F4F06C06081DA
S11318A0718180E090E00E5F1F4FA3010E947C0FC6
S11318B0882E8618FB2DFF773F2E36FE0DC0232D74
S11318C02E7FA22E891458F434FE0BC032FC09C0BA
S11318D0832D8E7EA82E05C0B82CA32C03C0B82C53
S11318E001C0B92CA4FE0FC0FE01E80DF11D8081DA
S11318F0803321F49A2D997EA92E09C0A2FE06C038
S1131900B394B39404C08A2D867809F0B394A3FCED
S113191011C0A0FE06C0B21488F4280C922C9B18A7
S11319200EC0B21460F4B60180E290E00E94400F51
S1131930B394F7CFB21418F42B1802C0982C212CAE
S1131940A4FE10C0B60180E390E00E94400FA2FE06
S113195017C0A1FC03C088E790E002C088E590E0CE
S1131960B6010CC08A2D867859F0A1FE02C08BE224
S113197001C080E2A7FC8DE2B60190E00E94400F16
S1131980891438F4B60180E390E00E94400F9A94E1
S1131990F7CF8A94F301E80DF11D8081B60190E040
S11319A00E94400F8110F5CF222009F442CEB601E7
S11319B080E290E00E94400F2A94F6CFF6018681DF
S11319C0978102C08FEF9FEF2B96E2E10C941B0AE4
S11319D0A9E0B0E0EEEEFCE00C94050A6A01122FD7
S11319E0B02E2BE3201720F0FF24F394F00E02C056
S11319F02CE3F22E0F2D27E0AE014F5F5F4F0E94C4
S1131A00420EBC014981842F8970813031F0E1FCA0
S1131A1006C0E0FE06C090E205C09DE203C09BE262
S1131A2001C090E05E2D507143FF3CC0911102C093
S1131A3083E001C084E0811718F4212F281B01C022
S1131A4020E051110BC0F601822F30E2882319F0F7
S1131A5031938150FBCFC20ED11C20E0992329F091
S1131A60D6019C93F60131966F01C6010396E2FEFE
S1131A700AC03EE4D6013C9341E411964C9311977D
S1131A8012963C9306C03EE6F601308341E641835C
S1131A903283FC01322F40E2332309F442C04193E4
S1131AA03150FACF42FF44C0911102C083E001C01B
S1131AB084E0811718F4212F281B01C020E0511164
S1131AC00BC0F601822F30E2882319F03193815044
S1131AD0FBCFC20ED11C20E0992329F0D6019C93A0
S1131AE0F60131966F01C6010396E2FE0BC039E49C
S1131AF0D6013C933EE411963C93119736E412963A
S1131B003C9307C039E6F60130833EE6318336E67E
S1131B103283FC01322F40E2332319F041933150D8
S1131B20FBCFFC01E20FF11D10828EEF9FEFA6C0E8
S1131B3021E030E0911102C020E030E016161706D3
S1131B401CF4FB01319602C0E1E0F0E02E0F3F1FD0
S1131B50BB2021F0EB2DF0E0319602C0E0E0F0E094
S1131B602E0F3F1FE12FF0E02E173F071CF4121B2E
S1131B70212F01C020E08E2D887159F4F601822FA7
S1131B8030E2882319F031938150FBCFC20ED11C6F
S1131B9020E0992329F0D6019C93F60131966F0138
S1131BA051110BC0F601822F90E3882319F0919311
S1131BB08150FBCFC20ED11C20E00F2D060F9A815D
S1131BC0342F307144FF03C0913309F401501016CF
S1131BD024F4093018F008E001C001E0AB0177FFFC
S1131BE002C040E050E0FB01E41BF50BA1E0B0E0D3
S1131BF0AC0FBD1FEA0FFB1F8EE2A82E4B01801A0B
S1131C0091080B2D10E01195019511094F3FBFEF7D
S1131C105B0721F4D601AC9211966D016417750728
S1131C202CF08416950614F4818101C080E34150A0
S1131C3051093196D60111967D014017510724F0C0
S1131C40D6018C936701E2CF6417750739F4963394
S1131C5020F4953319F4311101C081E3F601808336
S1131C60F701822F90E2882319F091938150FBCFE2
S1131C70F701E20FF11D108280E090E02996ECE07C
S1131C800C94210A283008F027E03327DA01990F51
S1131C90311D87FD916000966105710539F432604C
S1131CA02E5F3D9330E32A95E1F708959F3F30F08E
S1131CB080387105610509F03C5F3C5F3D939130CC
S1131CC008F08068911DDF93CF931F930F93FF92C9
S1131CD0EF92192F987F9695E92F96959695E90F8F
S1131CE0FF27EE53FF4F99273327EE24FF24A70144
S1131CF0E70105900894079428F4360FE71EF81EB0
S1131D00491F511D660F771F881F991F0694A1F75D
S1131D100590079428F4E70EF81E491F561FC11DAD
S1131D20770F881F991F661F0694A1F705900794E3
S1131D3028F4F80E491F561FC71FD11D880F991F7D
S1131D40661F771F0694A1F70590079420F4490FA6
S1131D50561FC71FD81F990F661F771F881F069429
S1131D60A9F784911095177041F0D695C7955795AA
S1131D704795F794E7941A95C1F7E8E6F0E068947C
S1131D801590159135916591959105907FE2739524
S1131D90E118F10A430B560BC90BD009C0F7E10C4B
S1131DA0F11E431F561FC91FD01D7EF4703311F45A
S1131DB08A95E6CFE894015030F0080F0AF4002722
S1131DC0021708F4202F2395022F7A3328F079E3A1
S1131DD07D932A95E9F710C07D932A9589F6069498
S1131DE097956795379517951794E118F10A430B62
S1131DF0560BC90BD00998F023957E9173957A33CD
S1131E0008F070E37C932013B8F77E9170617D93A2
S1131E1030F0839571E37D9370E32A95E1F7112403
S1131E20EF90FF900F911F91CF91DF91992787FD3C
S1131E3090950895FC010590615070400110D8F709
S1131E40809590958E0F9F1F0895FC0161507040FE
S1131E5001900110D8F7809590958E0F9F1F0895DB
S1131E60DC01FC01672F71917723E1F7329704C0FD
S1131E707C916D9370836291AE17BF07C8F3089588
S1131E800F931F93CF93DF93FB01238121FD03C0A5
S1131E908FEF9FEF2CC022FF16C04681578124810B
S1131EA035814217530744F4A081B1819D012F5F0E
S1131EB03F4F318320838C93268137812F5F3F4F9F
S1131EC03783268314C08B01EC01FB010084F18568
S1131ED0E02D0995892BE1F6D80116968D919C91F8
S1131EE01797019617969C938E931697CE01DF91C0
S1131EF0CF911F910F910895FA01AA27283051F12B
S1131F00203181F1E8946F936E7F6E5F7F4F8F4F26
S1131F109F4FAF4FB1E03ED0B4E03CD0670F781F85
S1131F20891F9A1FA11D680F791F8A1F911DA11D6A
S1131F306A0F711D811D911DA11D20D009F46894A3
S1131F403F912AE0269F11243019305D3193DEF64B
S1131F50CF010895462F4770405D4193B3E00FD001
S1131F60C9F7F6CF462F4F70405D4A3318F0495DEC
S1131F7031FD4052419302D0A9F7EACFB4E0A695CF
S1131F809795879577956795BA95C9F700976105F1
S1131F90710508959B01AC010A2E06945795479547
S1131FA037952795BA95C9F7620F731F841F951F3C
S10B1FB0A01D0895F894FFCF71
S1131FB804FFFF00401454476174655F4F700A00C2
S1131FC8476174655F436C0A004C6F636B5F4F66CF
S1131FD8660A004C6F636B5F4F6E0A0048004D0041
S1131FE84D616E75616C5F4F6E0041434B5F4D618F
S1131FF86E75616C5F4F6E0A004D616E75616C5F42
S11320084F66660041434B5F4D616E75616C5F4F6F
S113201866660A00536572766F5F636C6F7365005A
S11320284C6F636B5F4F6E004C6F636B5F4F4E007A
S1132038536572766F5F6F70656E004C6F636B5F8C
S11320484F6666004C6F636B5F4F4646005374657A
S1132058707065725F497A00537465707065725F59
S113206853746F7000537465707065725F44657261
S11320782800537465707065725F44657200444348
S11320880044435F4272616B650025752525202055
S1132098002573432020002020202000444553427B
S11320A82000424C4F5120004142494552200043F0
S11320B845525220200048756D656461642020549F
S11320C8656D702020436572726F6A6F20205075A9
S10920D865727461000052
S9030000FC
